{
  "contractName": "SelfMultiply",
  "abi": [
    {
      "constant": false,
      "inputs": [],
      "name": "withdraw",
      "outputs": [
        {
          "name": "",
          "type": "uint256"
        }
      ],
      "payable": true,
      "stateMutability": "payable",
      "type": "function"
    },
    {
      "constant": true,
      "inputs": [],
      "name": "owner",
      "outputs": [
        {
          "name": "",
          "type": "address"
        }
      ],
      "payable": false,
      "stateMutability": "view",
      "type": "function"
    },
    {
      "constant": true,
      "inputs": [],
      "name": "balance",
      "outputs": [
        {
          "name": "",
          "type": "uint256"
        }
      ],
      "payable": false,
      "stateMutability": "view",
      "type": "function"
    },
    {
      "constant": false,
      "inputs": [],
      "name": "deposit",
      "outputs": [
        {
          "name": "",
          "type": "uint256"
        }
      ],
      "payable": true,
      "stateMutability": "payable",
      "type": "function"
    },
    {
      "inputs": [],
      "payable": false,
      "stateMutability": "nonpayable",
      "type": "constructor"
    }
  ],
  "bytecode": "0x6060604052336000806101000a81548173ffffffffffffffffffffffffffffffffffffffff021916908373ffffffffffffffffffffffffffffffffffffffff160217905550341561004f57600080fd5b61023e8061005e6000396000f300606060405260043610610062576000357c0100000000000000000000000000000000000000000000000000000000900463ffffffff1680633ccfd60b146100675780638da5cb5b14610085578063b69ef8a8146100da578063d0e30db014610103575b600080fd5b61006f610121565b6040518082815260200191505060405180910390f35b341561009057600080fd5b6100986101ca565b604051808273ffffffffffffffffffffffffffffffffffffffff1673ffffffffffffffffffffffffffffffffffffffff16815260200191505060405180910390f35b34156100e557600080fd5b6100ed6101ef565b6040518082815260200191505060405180910390f35b61010b6101f5565b6040518082815260200191505060405180910390f35b60008060009054906101000a900473ffffffffffffffffffffffffffffffffffffffff168073ffffffffffffffffffffffffffffffffffffffff163373ffffffffffffffffffffffffffffffffffffffff1614151561017f57600080fd5b3373ffffffffffffffffffffffffffffffffffffffff166108fc6001549081150290604051600060405180830381858888f1935050505015156101c157600080fd5b60015491505090565b6000809054906101000a900473ffffffffffffffffffffffffffffffffffffffff1681565b60015481565b6000606434026001600082825401925050819055506001549050905600a165627a7a723058201af5982cde6a871b49d34f0769b629a0362d0b1e3fe2fd9862a2ff3771db64be0029",
  "source": "pragma solidity ^0.4.18; //We have to specify what version of the compiler this code will use\r\n\r\ncontract SelfMultiply {\r\n  address public owner = msg.sender;\r\n  uint public balance;\r\n\r\n  // Modifiers can be used to change\r\n  // the body of a function.\r\n  // If this modifier is used, it will\r\n  // prepend a check that only passes\r\n  // if the function is called from\r\n  // a certain address.\r\n  modifier onlyBy(address _account)\r\n  {\r\n      require(msg.sender == _account);\r\n      // Do not forget the \"_;\"! It will\r\n      // be replaced by the actual function\r\n      // body when the modifier is used.\r\n      _;\r\n  }\r\n\r\n  function SelfMultiply() public {\r\n\r\n  }\r\n\r\n  function deposit() external payable returns (uint) {\r\n    balance += msg.value * 100;\r\n    return balance;\r\n  }\r\n\r\n  function withdraw() external payable onlyBy(owner) returns (uint) {\r\n    msg.sender.transfer(balance);\r\n    return balance;\r\n  }\r\n}",
  "sourcePath": "D:\\GitProjects\\ethereum-contract-testnet\\contracts\\SelfMultiply.sol",
  "compiler": {
    "name": "solc",
    "version": "0.4.18+commit.9cf6e910.Emscripten.clang"
  },
  "schemaVersion": "1.0.1",
  "updatedAt": "2017-12-02T06:06:21.149Z"
}